{
  "contractName": "SupplyChain",
  "abi": [
    {
      "inputs": [],
      "name": "productCount",
      "outputs": [
        {
          "internalType": "uint256",
          "name": "",
          "type": "uint256"
        }
      ],
      "stateMutability": "view",
      "type": "function",
      "constant": true
    },
    {
      "inputs": [
        {
          "internalType": "uint256",
          "name": "",
          "type": "uint256"
        }
      ],
      "name": "products",
      "outputs": [
        {
          "internalType": "uint256",
          "name": "id",
          "type": "uint256"
        },
        {
          "internalType": "string",
          "name": "name",
          "type": "string"
        },
        {
          "internalType": "address",
          "name": "currentOwner",
          "type": "address"
        },
        {
          "internalType": "address",
          "name": "creator",
          "type": "address"
        }
      ],
      "stateMutability": "view",
      "type": "function",
      "constant": true
    },
    {
      "inputs": [
        {
          "internalType": "string",
          "name": "_name",
          "type": "string"
        }
      ],
      "name": "registerProduct",
      "outputs": [],
      "stateMutability": "nonpayable",
      "type": "function"
    },
    {
      "inputs": [
        {
          "internalType": "uint256",
          "name": "_id",
          "type": "uint256"
        },
        {
          "internalType": "address",
          "name": "_newOwner",
          "type": "address"
        }
      ],
      "name": "changeOwner",
      "outputs": [],
      "stateMutability": "nonpayable",
      "type": "function"
    },
    {
      "inputs": [
        {
          "internalType": "uint256",
          "name": "_id",
          "type": "uint256"
        },
        {
          "internalType": "string",
          "name": "_desc",
          "type": "string"
        }
      ],
      "name": "addLogisticsStep",
      "outputs": [],
      "stateMutability": "nonpayable",
      "type": "function"
    },
    {
      "inputs": [
        {
          "internalType": "uint256",
          "name": "_id",
          "type": "uint256"
        }
      ],
      "name": "getProductHistory",
      "outputs": [
        {
          "components": [
            {
              "internalType": "string",
              "name": "description",
              "type": "string"
            },
            {
              "internalType": "address",
              "name": "actor",
              "type": "address"
            },
            {
              "internalType": "uint256",
              "name": "timestamp",
              "type": "uint256"
            }
          ],
          "internalType": "struct SupplyChain.Step[]",
          "name": "",
          "type": "tuple[]"
        }
      ],
      "stateMutability": "view",
      "type": "function",
      "constant": true
    }
  ],
  "bytecode": "0x6080604052600060015534801561001557600080fd5b506110a1806100256000396000f3fe608060405234801561001057600080fd5b50600436106100625760003560e01c806357a096a11461006757806361aaa16a14610097578063660930e8146100b3578063784796f7146100cf5780637acc0b20146100eb578063e0f6ef871461011e575b600080fd5b610081600480360381019061007c9190610a90565b61013c565b60405161008e9190610d36565b60405180910390f35b6100b160048036038101906100ac9190610af5565b6102a2565b005b6100cd60048036038101906100c89190610a4f565b61042a565b005b6100e960048036038101906100e49190610ab9565b61060b565b005b61010560048036038101906101009190610a90565b61081c565b6040516101159493929190610d93565b60405180910390f35b610126610914565b6040516101339190610d78565b60405180910390f35b6060600080838152602001908152602001600020600401805480602002602001604051908101604052809291908181526020016000905b8282101561029757838290600052602060002090600302016040518060600160405290816000820180546101a690610f24565b80601f01602080910402602001604051908101604052809291908181526020018280546101d290610f24565b801561021f5780601f106101f45761010080835404028352916020019161021f565b820191906000526020600020905b81548152906001019060200180831161020257829003601f168201915b505050505081526020016001820160009054906101000a900473ffffffffffffffffffffffffffffffffffffffff1673ffffffffffffffffffffffffffffffffffffffff1673ffffffffffffffffffffffffffffffffffffffff16815260200160028201548152505081526020019060010190610173565b505050509050919050565b813373ffffffffffffffffffffffffffffffffffffffff1660008083815260200190815260200160002060020160009054906101000a900473ffffffffffffffffffffffffffffffffffffffff1673ffffffffffffffffffffffffffffffffffffffff1614610346576040517f08c379a000000000000000000000000000000000000000000000000000000000815260040161033d90610d58565b60405180910390fd5b60008084815260200190815260200160002060040160405180606001604052808481526020013373ffffffffffffffffffffffffffffffffffffffff16815260200142815250908060018154018082558091505060019003906000526020600020906003020160009091909190915060008201518160000190805190602001906103d192919061091a565b5060208201518160010160006101000a81548173ffffffffffffffffffffffffffffffffffffffff021916908373ffffffffffffffffffffffffffffffffffffffff160217905550604082015181600201555050505050565b6001600081548092919061043d90610f56565b919050555060008060006001548152602001908152602001600020905060015481600001819055508181600101908051906020019061047d92919061091a565b50338160020160006101000a81548173ffffffffffffffffffffffffffffffffffffffff021916908373ffffffffffffffffffffffffffffffffffffffff160217905550338160030160006101000a81548173ffffffffffffffffffffffffffffffffffffffff021916908373ffffffffffffffffffffffffffffffffffffffff1602179055508060040160405180606001604052806040518060400160405280601381526020017f4372656174696f6e2064752070726f647569740000000000000000000000000081525081526020013373ffffffffffffffffffffffffffffffffffffffff16815260200142815250908060018154018082558091505060019003906000526020600020906003020160009091909190915060008201518160000190805190602001906105b392919061091a565b5060208201518160010160006101000a81548173ffffffffffffffffffffffffffffffffffffffff021916908373ffffffffffffffffffffffffffffffffffffffff1602179055506040820151816002015550505050565b813373ffffffffffffffffffffffffffffffffffffffff1660008083815260200190815260200160002060020160009054906101000a900473ffffffffffffffffffffffffffffffffffffffff1673ffffffffffffffffffffffffffffffffffffffff16146106af576040517f08c379a00000000000000000000000000000000000000000000000000000000081526004016106a690610d58565b60405180910390fd5b8160008085815260200190815260200160002060020160006101000a81548173ffffffffffffffffffffffffffffffffffffffff021916908373ffffffffffffffffffffffffffffffffffffffff16021790555060008084815260200190815260200160002060040160405180606001604052806040518060400160405280601a81526020017f4368616e67656d656e742064652070726f70726965746169726500000000000081525081526020013373ffffffffffffffffffffffffffffffffffffffff16815260200142815250908060018154018082558091505060019003906000526020600020906003020160009091909190915060008201518160000190805190602001906107c392919061091a565b5060208201518160010160006101000a81548173ffffffffffffffffffffffffffffffffffffffff021916908373ffffffffffffffffffffffffffffffffffffffff160217905550604082015181600201555050505050565b600060205280600052604060002060009150905080600001549080600101805461084590610f24565b80601f016020809104026020016040519081016040528092919081815260200182805461087190610f24565b80156108be5780601f10610893576101008083540402835291602001916108be565b820191906000526020600020905b8154815290600101906020018083116108a157829003601f168201915b5050505050908060020160009054906101000a900473ffffffffffffffffffffffffffffffffffffffff16908060030160009054906101000a900473ffffffffffffffffffffffffffffffffffffffff16905084565b60015481565b82805461092690610f24565b90600052602060002090601f016020900481019282610948576000855561098f565b82601f1061096157805160ff191683800117855561098f565b8280016001018555821561098f579182015b8281111561098e578251825591602001919060010190610973565b5b50905061099c91906109a0565b5090565b5b808211156109b95760008160009055506001016109a1565b5090565b60006109d06109cb84610e10565b610ddf565b9050828152602081018484840111156109e857600080fd5b6109f3848285610ee2565b509392505050565b600081359050610a0a8161103d565b92915050565b600082601f830112610a2157600080fd5b8135610a318482602086016109bd565b91505092915050565b600081359050610a4981611054565b92915050565b600060208284031215610a6157600080fd5b600082013567ffffffffffffffff811115610a7b57600080fd5b610a8784828501610a10565b91505092915050565b600060208284031215610aa257600080fd5b6000610ab084828501610a3a565b91505092915050565b60008060408385031215610acc57600080fd5b6000610ada85828601610a3a565b9250506020610aeb858286016109fb565b9150509250929050565b60008060408385031215610b0857600080fd5b6000610b1685828601610a3a565b925050602083013567ffffffffffffffff811115610b3357600080fd5b610b3f85828601610a10565b9150509250929050565b6000610b558383610cc8565b905092915050565b610b6681610ea6565b82525050565b610b7581610ea6565b82525050565b6000610b8682610e50565b610b908185610e73565b935083602082028501610ba285610e40565b8060005b85811015610bde5784840389528151610bbf8582610b49565b9450610bca83610e66565b925060208a01995050600181019050610ba6565b50829750879550505050505092915050565b6000610bfb82610e5b565b610c058185610e84565b9350610c15818560208601610ef1565b610c1e8161102c565b840191505092915050565b6000610c3482610e5b565b610c3e8185610e95565b9350610c4e818560208601610ef1565b610c578161102c565b840191505092915050565b6000610c6f603083610e95565b91507f4572726575723a20566f7573206e276574657320706173206c652070726f707260008301527f696574616972652061637475656c2021000000000000000000000000000000006020830152604082019050919050565b60006060830160008301518482036000860152610ce58282610bf0565b9150506020830151610cfa6020860182610b5d565b506040830151610d0d6040860182610d18565b508091505092915050565b610d2181610ed8565b82525050565b610d3081610ed8565b82525050565b60006020820190508181036000830152610d508184610b7b565b905092915050565b60006020820190508181036000830152610d7181610c62565b9050919050565b6000602082019050610d8d6000830184610d27565b92915050565b6000608082019050610da86000830187610d27565b8181036020830152610dba8186610c29565b9050610dc96040830185610b6c565b610dd66060830184610b6c565b95945050505050565b6000604051905081810181811067ffffffffffffffff82111715610e0657610e05610ffd565b5b8060405250919050565b600067ffffffffffffffff821115610e2b57610e2a610ffd565b5b601f19601f8301169050602081019050919050565b6000819050602082019050919050565b600081519050919050565b600081519050919050565b6000602082019050919050565b600082825260208201905092915050565b600082825260208201905092915050565b600082825260208201905092915050565b6000610eb182610eb8565b9050919050565b600073ffffffffffffffffffffffffffffffffffffffff82169050919050565b6000819050919050565b82818337600083830152505050565b60005b83811015610f0f578082015181840152602081019050610ef4565b83811115610f1e576000848401525b50505050565b60006002820490506001821680610f3c57607f821691505b60208210811415610f5057610f4f610fce565b5b50919050565b6000610f6182610ed8565b91507fffffffffffffffffffffffffffffffffffffffffffffffffffffffffffffffff821415610f9457610f93610f9f565b5b600182019050919050565b7f4e487b7100000000000000000000000000000000000000000000000000000000600052601160045260246000fd5b7f4e487b7100000000000000000000000000000000000000000000000000000000600052602260045260246000fd5b7f4e487b7100000000000000000000000000000000000000000000000000000000600052604160045260246000fd5b6000601f19601f8301169050919050565b61104681610ea6565b811461105157600080fd5b50565b61105d81610ed8565b811461106857600080fd5b5056fea2646970667358221220336fa9a2a408a4b7aa4582309c6386be3ad37f9eb3207986737f795c5f048e8764736f6c63430008000033",
  "immutableReferences": {},
  "source": "// SPDX-License-Identifier: MIT\r\npragma solidity ^0.8.0;\r\n\r\ncontract SupplyChain {\r\n    struct Step {\r\n        string description;\r\n        address actor;\r\n        uint256 timestamp;\r\n    }\r\n\r\n    struct Product {\r\n        uint256 id;\r\n        string name;\r\n        address currentOwner;\r\n        address creator;\r\n        Step[] history;\r\n    }\r\n\r\n    mapping(uint256 => Product) public products;\r\n    uint256 public productCount = 0;\r\n\r\n    modifier onlyOwner(uint256 _id) {\r\n        require(products[_id].currentOwner == msg.sender, \"Erreur: Vous n'etes pas le proprietaire actuel !\");\r\n        _;\r\n    }\r\n\r\n    // Fonctionnalite 1: Enregistrement\r\n    function registerProduct(string memory _name) public {\r\n        productCount++;\r\n        Product storage newProduct = products[productCount];\r\n        newProduct.id = productCount;\r\n        newProduct.name = _name;\r\n        newProduct.currentOwner = msg.sender;\r\n        newProduct.creator = msg.sender;\r\n        \r\n        newProduct.history.push(Step(\"Creation du produit\", msg.sender, block.timestamp));\r\n    }\r\n\r\n    // Fonctionnalite 2: Changement de proprietaire\r\n    function changeOwner(uint256 _id, address _newOwner) public onlyOwner(_id) {\r\n        products[_id].currentOwner = _newOwner;\r\n        products[_id].history.push(Step(\"Changement de proprietaire\", msg.sender, block.timestamp));\r\n    }\r\n\r\n    // Fonctionnalite 3: Ajout d'etape logistique\r\n    function addLogisticsStep(uint256 _id, string memory _desc) public onlyOwner(_id) {\r\n        products[_id].history.push(Step(_desc, msg.sender, block.timestamp));\r\n    }\r\n\r\n    // Fonctionnalite 4 & 5: Historique\r\n    function getProductHistory(uint256 _id) public view returns (Step[] memory) {\r\n        return products[_id].history;\r\n    }\r\n}",
  "sourcePath": "C:\\Users\\ibtissam essadiki\\supply-chain-tracking\\1_blockchain\\contracts\\SupplyChain.sol",
  "compiler": {
    "name": "solc",
    "version": "0.8.0+commit.c7dfd78e.Emscripten.clang"
  },
  "schemaVersion": "3.4.16",
  "updatedAt": "2026-03-13T13:43:40.243Z",
  "networkType": "ethereum",
  "devdoc": {
    "kind": "dev",
    "methods": {},
    "version": 1
  },
  "userdoc": {
    "kind": "user",
    "methods": {},
    "version": 1
  }
}